{
  "contractName": "Authorizable",
  "abi": [
    {
      "constant": true,
      "inputs": [],
      "name": "totalAuthorized",
      "outputs": [
        {
          "name": "",
          "type": "uint256"
        }
      ],
      "payable": false,
      "stateMutability": "view",
      "type": "function"
    },
    {
      "constant": true,
      "inputs": [],
      "name": "authorizerLevel",
      "outputs": [
        {
          "name": "",
          "type": "uint256"
        }
      ],
      "payable": false,
      "stateMutability": "view",
      "type": "function"
    },
    {
      "constant": true,
      "inputs": [],
      "name": "owner",
      "outputs": [
        {
          "name": "",
          "type": "address"
        }
      ],
      "payable": false,
      "stateMutability": "view",
      "type": "function"
    },
    {
      "constant": true,
      "inputs": [
        {
          "name": "",
          "type": "address"
        }
      ],
      "name": "authorized",
      "outputs": [
        {
          "name": "",
          "type": "uint256"
        }
      ],
      "payable": false,
      "stateMutability": "view",
      "type": "function"
    },
    {
      "constant": true,
      "inputs": [],
      "name": "maxLevel",
      "outputs": [
        {
          "name": "",
          "type": "uint256"
        }
      ],
      "payable": false,
      "stateMutability": "view",
      "type": "function"
    },
    {
      "constant": false,
      "inputs": [
        {
          "name": "newOwner",
          "type": "address"
        }
      ],
      "name": "transferOwnership",
      "outputs": [],
      "payable": false,
      "stateMutability": "nonpayable",
      "type": "function"
    },
    {
      "anonymous": false,
      "inputs": [
        {
          "indexed": false,
          "name": "_authorizer",
          "type": "address"
        },
        {
          "indexed": false,
          "name": "_authorized",
          "type": "address"
        },
        {
          "indexed": false,
          "name": "_level",
          "type": "uint256"
        }
      ],
      "name": "AuthorizedAdded",
      "type": "event"
    },
    {
      "anonymous": false,
      "inputs": [
        {
          "indexed": false,
          "name": "_authorizer",
          "type": "address"
        },
        {
          "indexed": false,
          "name": "_authorized",
          "type": "address"
        }
      ],
      "name": "AuthorizedRemoved",
      "type": "event"
    },
    {
      "anonymous": false,
      "inputs": [
        {
          "indexed": true,
          "name": "previousOwner",
          "type": "address"
        },
        {
          "indexed": true,
          "name": "newOwner",
          "type": "address"
        }
      ],
      "name": "OwnershipTransferred",
      "type": "event"
    },
    {
      "constant": false,
      "inputs": [
        {
          "name": "_maxLevel",
          "type": "uint256"
        },
        {
          "name": "_authorizerLevel",
          "type": "uint256"
        }
      ],
      "name": "setLevels",
      "outputs": [],
      "payable": false,
      "stateMutability": "nonpayable",
      "type": "function"
    },
    {
      "constant": false,
      "inputs": [
        {
          "name": "_address",
          "type": "address"
        },
        {
          "name": "_level",
          "type": "uint256"
        }
      ],
      "name": "authorize",
      "outputs": [],
      "payable": false,
      "stateMutability": "nonpayable",
      "type": "function"
    },
    {
      "constant": false,
      "inputs": [],
      "name": "deAuthorizeAll",
      "outputs": [],
      "payable": false,
      "stateMutability": "nonpayable",
      "type": "function"
    },
    {
      "constant": false,
      "inputs": [],
      "name": "deAuthorize",
      "outputs": [],
      "payable": false,
      "stateMutability": "nonpayable",
      "type": "function"
    },
    {
      "constant": true,
      "inputs": [],
      "name": "amIAuthorized",
      "outputs": [
        {
          "name": "",
          "type": "bool"
        }
      ],
      "payable": false,
      "stateMutability": "view",
      "type": "function"
    }
  ],
  "bytecode": "0x60606040908152600455603860055560008054600160a060020a033316600160a060020a03199091161790556107218061003a6000396000f3006060604052600436106100ae5763ffffffff7c010000000000000000000000000000000000000000000000000000000060003504166326d8ffaf81146100b35780633c930863146100d85780636d4c409d146100eb5780637d067bda146101005780638da5cb5b146101195780639cb0fd3014610148578063b91816111461015b578063c1dbd9b21461017a578063cc06c3591461019c578063f2fde38b146101af578063fcf7b193146101ce575b600080fd5b34156100be57600080fd5b6100c66101f5565b60405190815260200160405180910390f35b34156100e357600080fd5b6100c66101fb565b34156100f657600080fd5b6100fe610201565b005b341561010b57600080fd5b6100fe600435602435610231565b341561012457600080fd5b61012c61028c565b604051600160a060020a03909116815260200160405180910390f35b341561015357600080fd5b6100fe61029b565b341561016657600080fd5b6100c6600160a060020a0360043516610328565b341561018557600080fd5b6100fe600160a060020a036004351660243561033a565b34156101a757600080fd5b6100c661038a565b34156101ba57600080fd5b6100fe600160a060020a0360043516610390565b34156101d957600080fd5b6101e161042b565b604051901515815260200160405180910390f35b60015481565b60055481565b600160a060020a0333166000908152600260205260408120541161022457600080fd5b61022f336000610449565b565b60005433600160a060020a0390811691161461024c57600080fd5b6001541561025957600080fd5b6000821180156102695750600081115b151561027457600080fd5b8082101561028157600080fd5b600491909155600555565b600054600160a060020a031681565b6000805433600160a060020a039081169116146102b757600080fd5b5060005b600354811015610325576003805460009190839081106102d757fe5b600091825260209091200154600160a060020a03161461031d5761031d60038281548110151561030357fe5b6000918252602082200154600160a060020a031690610449565b6001016102bb565b50565b60026020526000908152604090205481565b60005433600160a060020a03908116911614806103715750600554600160a060020a03331660009081526002602052604090205410155b151561037c57600080fd5b6103868282610449565b5050565b60045481565b60005433600160a060020a039081169116146103ab57600080fd5b600160a060020a03811615156103c057600080fd5b600054600160a060020a0380831691167f8be0079c531659141344cd1fd0a4f28419497f9722a3daafe3b4186f6b6457e060405160405180910390a36000805473ffffffffffffffffffffffffffffffffffffffff1916600160a060020a0392909216919091179055565b600160a060020a033316600090815260026020526040812054115b90565b600080600160a060020a038416151561046157600080fd5b6000831015801561047457506004548311155b151561047f57600080fd5b60008311156105a4575060009050805b6003548210156104e05783600160a060020a03166003838154811015156104b257fe5b600091825260209091200154600160a060020a031614156104d5575060016104e0565b60019091019061048f565b8015156105345760038054600181016104f983826106ae565b506000918252602090912001805473ffffffffffffffffffffffffffffffffffffffff1916600160a060020a03861617905560018054810190555b7f06dda00f803c88b3d3f6c2ba66ff2996f168efd81dd9e675b9c558302e8c5f87338585604051600160a060020a039384168152919092166020820152604080820192909252606001905180910390a1600160a060020a03841660009081526002602052604090208390556106a8565b600091505b6003548210156106485783600160a060020a03166003838154811015156105cc57fe5b600091825260209091200154600160a060020a0316141561063d5760006003838154811015156105f857fe5b6000918252602090912001805473ffffffffffffffffffffffffffffffffffffffff1916600160a060020a039290921691909117905560018054600019019055610648565b6001909101906105a9565b7f62086cfc7c3ff60afd375bbb15abc4e07aaabebacc022a791c1a31e29bc96aa13385604051600160a060020a039283168152911660208201526040908101905180910390a1600160a060020a0384166000908152600260205260408120555b50505050565b8154818355818115116106d2576000838152602090206106d29181019083016106d7565b505050565b61044691905b808211156106f157600081556001016106dd565b50905600a165627a7a72305820195b01a089913be1eae103b9b254cd36715d09f16485ac7104118381eaad8f720029",
  "source": "pragma solidity ^0.4.18;\n\nimport 'zeppelin/ownership/Ownable.sol';\n\n\n// @title Authorizable\n// The Authorizable contract provides authorization control functions.\n\n/*\n  The level is a uint <= maxLevel (64 by default)\n  \n    0 means not authorized\n    1..maxLevel means authorized\n\n  Having more levels allows to create hierarchical roles.\n  For example:\n    ...\n    operatorLevel: 6\n    teamManagerLevel: 10\n    ...\n    CTOLevel: 32\n    ...\n\n  If the owner wants to execute functions which require explicit authorization, it must authorize itself.\n  \n  If you need complex level, in the extended contract, you can add a function to generate unique roles based on combination of levels. The possibilities are almost unlimited, since the level is a uint256\n*/\n\ncontract Authorizable is Ownable {\n\n  uint public totalAuthorized;\n\n  mapping(address => uint) public authorized;\n  address[] internal __authorized;\n\n  event AuthorizedAdded(address _authorizer, address _authorized, uint _level);\n\n  event AuthorizedRemoved(address _authorizer, address _authorized);\n\n  uint public maxLevel = 64;\n  uint public authorizerLevel = 56;\n\n  function setLevels(uint _maxLevel, uint _authorizerLevel) external onlyOwner {\n    // this must be called before authorizing any address\n    require(totalAuthorized == 0);\n    require(_maxLevel > 0 && _authorizerLevel > 0);\n    require(_maxLevel >= _authorizerLevel);\n\n    maxLevel = _maxLevel;\n    authorizerLevel = _authorizerLevel;\n  }\n\n  // Throws if called by any account which is not authorized.\n  modifier onlyAuthorized() {\n    require(authorized[msg.sender] > 0);\n    _;\n  }\n\n  // Throws if called by any account which is not authorized at a specific level.\n  modifier onlyAuthorizedAtLevel(uint _level) {\n    require(authorized[msg.sender] == _level);\n    _;\n  }\n\n  // Throws if called by any account which is not authorized at some of the specified levels.\n  modifier onlyAuthorizedAtLevels(uint[] _levels) {\n    require(__hasLevel(authorized[msg.sender], _levels));\n    _;\n  }\n\n  // Throws if called by any account which is not authorized at a minimum required level.\n  modifier onlyAuthorizedAtLevelMoreThan(uint _level) {\n    require(authorized[msg.sender] > _level);\n    _;\n  }\n\n  // Throws if called by any account which has a level of authorization less than a certan maximum.\n  modifier onlyAuthorizedAtLevelLessThan(uint _level) {\n    require(authorized[msg.sender] > 0 && authorized[msg.sender] < _level);\n    _;\n  }\n\n  // same modifiers but including the owner\n\n  modifier onlyOwnerOrAuthorized() {\n    require(msg.sender == owner || authorized[msg.sender] > 0);\n    _;\n  }\n\n  modifier onlyOwnerOrAuthorizedAtLevel(uint _level) {\n    require(msg.sender == owner || authorized[msg.sender] == _level);\n    _;\n  }\n\n  modifier onlyOwnerOrAuthorizedAtLevels(uint[] _levels) {\n    require(msg.sender == owner || __hasLevel(authorized[msg.sender], _levels));\n    _;\n  }\n\n  modifier onlyOwnerOrAuthorizedAtLevelMoreThan(uint _level) {\n    require(msg.sender == owner || authorized[msg.sender] > _level);\n    _;\n  }\n\n  modifier onlyOwnerOrAuthorizedAtLevelLessThan(uint _level) {\n    require(msg.sender == owner || (authorized[msg.sender] > 0 && authorized[msg.sender] < _level));\n    _;\n  }\n\n  // Throws if called by anyone who is not an authorizer.\n  modifier onlyAuthorizer() {\n    require(msg.sender == owner || authorized[msg.sender] >= authorizerLevel);\n    _;\n  }\n\n\n  // methods\n\n  // Allows the current owner and authorized with level >= authorizerLevel to add a new authorized address, or remove it, setting _level to 0\n  function authorize(address _address, uint _level) onlyAuthorizer external {\n    __authorize(_address, _level);\n  }\n\n  // Allows the current owner to remove all the authorizations.\n  function deAuthorizeAll() onlyOwner external {\n    for (uint i = 0; i < __authorized.length; i++) {\n      if (__authorized[i] != address(0)) {\n        __authorize(__authorized[i], 0);\n      }\n    }\n  }\n\n  // Allows an authorized to de-authorize itself.\n  function deAuthorize() onlyAuthorized external {\n    __authorize(msg.sender, 0);\n  }\n\n  // internal functions\n  function __authorize(address _address, uint _level) internal {\n    require(_address != address(0));\n    require(_level >= 0 && _level <= maxLevel);\n\n    uint i;\n    if (_level > 0) {\n      bool alreadyIndexed = false;\n      for (i = 0; i < __authorized.length; i++) {\n        if (__authorized[i] == _address) {\n          alreadyIndexed = true;\n          break;\n        }\n      }\n      if (alreadyIndexed == false) {\n        __authorized.push(_address);\n        totalAuthorized++;\n      }\n      AuthorizedAdded(msg.sender, _address, _level);\n      authorized[_address] = _level;\n    } else {\n      for (i = 0; i < __authorized.length; i++) {\n        if (__authorized[i] == _address) {\n          __authorized[i] = address(0);\n          totalAuthorized--;\n          break;\n        }\n      }\n      AuthorizedRemoved(msg.sender, _address);\n      delete authorized[_address];\n    }\n  }\n\n  function __hasLevel(uint _level, uint[] _levels) internal pure returns (bool) {\n    bool has = false;\n    for (uint i; i < _levels.length; i++) {\n      if (_level == _levels[i]) {\n        has = true;\n        break;\n      }\n    }\n    return has;\n  }\n\n  // helpers callable by other contracts\n\n  function amIAuthorized() external constant returns (bool) {\n    return authorized[msg.sender] > 0;\n  }\n\n}",
  "sourcePath": "/Users/sullof/Projects/toktv/TokenTelevision/authorizable/contracts/Authorizable.sol",
  "compiler": {
    "name": "solc",
    "version": "0.4.19+commit.c4cbbb05.Emscripten.clang"
  },
  "schemaVersion": "2.0.0",
  "updatedAt": "2018-03-28T17:53:47.898Z"
}