{
  "contractName": "SubscriptionStore",
  "abi": [
    {
      "constant": true,
      "inputs": [],
      "name": "totalAuthorized",
      "outputs": [
        {
          "name": "",
          "type": "uint256"
        }
      ],
      "payable": false,
      "stateMutability": "view",
      "type": "function"
    },
    {
      "constant": true,
      "inputs": [],
      "name": "authorizerLevel",
      "outputs": [
        {
          "name": "",
          "type": "uint256"
        }
      ],
      "payable": false,
      "stateMutability": "view",
      "type": "function"
    },
    {
      "constant": true,
      "inputs": [
        {
          "name": "",
          "type": "address"
        }
      ],
      "name": "subscription",
      "outputs": [
        {
          "name": "lastTransactionId",
          "type": "uint256"
        },
        {
          "name": "expirationTimestamp",
          "type": "uint256"
        }
      ],
      "payable": false,
      "stateMutability": "view",
      "type": "function"
    },
    {
      "constant": false,
      "inputs": [],
      "name": "deAuthorize",
      "outputs": [],
      "payable": false,
      "stateMutability": "nonpayable",
      "type": "function"
    },
    {
      "constant": false,
      "inputs": [
        {
          "name": "_maxLevel",
          "type": "uint256"
        },
        {
          "name": "_authorizerLevel",
          "type": "uint256"
        }
      ],
      "name": "setLevels",
      "outputs": [],
      "payable": false,
      "stateMutability": "nonpayable",
      "type": "function"
    },
    {
      "constant": true,
      "inputs": [],
      "name": "owner",
      "outputs": [
        {
          "name": "",
          "type": "address"
        }
      ],
      "payable": false,
      "stateMutability": "view",
      "type": "function"
    },
    {
      "constant": false,
      "inputs": [],
      "name": "deAuthorizeAll",
      "outputs": [],
      "payable": false,
      "stateMutability": "nonpayable",
      "type": "function"
    },
    {
      "constant": true,
      "inputs": [
        {
          "name": "",
          "type": "address"
        }
      ],
      "name": "authorized",
      "outputs": [
        {
          "name": "",
          "type": "uint256"
        }
      ],
      "payable": false,
      "stateMutability": "view",
      "type": "function"
    },
    {
      "constant": false,
      "inputs": [
        {
          "name": "_address",
          "type": "address"
        },
        {
          "name": "_level",
          "type": "uint256"
        }
      ],
      "name": "authorize",
      "outputs": [],
      "payable": false,
      "stateMutability": "nonpayable",
      "type": "function"
    },
    {
      "constant": true,
      "inputs": [],
      "name": "maxLevel",
      "outputs": [
        {
          "name": "",
          "type": "uint256"
        }
      ],
      "payable": false,
      "stateMutability": "view",
      "type": "function"
    },
    {
      "constant": true,
      "inputs": [
        {
          "name": "",
          "type": "uint8"
        }
      ],
      "name": "tiers",
      "outputs": [
        {
          "name": "",
          "type": "uint256"
        }
      ],
      "payable": false,
      "stateMutability": "view",
      "type": "function"
    },
    {
      "constant": false,
      "inputs": [
        {
          "name": "newOwner",
          "type": "address"
        }
      ],
      "name": "transferOwnership",
      "outputs": [],
      "payable": false,
      "stateMutability": "nonpayable",
      "type": "function"
    },
    {
      "constant": true,
      "inputs": [],
      "name": "amIAuthorized",
      "outputs": [
        {
          "name": "",
          "type": "bool"
        }
      ],
      "payable": false,
      "stateMutability": "view",
      "type": "function"
    },
    {
      "inputs": [],
      "payable": false,
      "stateMutability": "nonpayable",
      "type": "constructor"
    },
    {
      "anonymous": false,
      "inputs": [
        {
          "indexed": false,
          "name": "_address",
          "type": "address"
        },
        {
          "indexed": false,
          "name": "_txId",
          "type": "uint256"
        },
        {
          "indexed": false,
          "name": "_result",
          "type": "bool"
        }
      ],
      "name": "newSubscription",
      "type": "event"
    },
    {
      "anonymous": false,
      "inputs": [
        {
          "indexed": false,
          "name": "_authorizer",
          "type": "address"
        },
        {
          "indexed": false,
          "name": "_authorized",
          "type": "address"
        },
        {
          "indexed": false,
          "name": "_level",
          "type": "uint256"
        }
      ],
      "name": "AuthorizedAdded",
      "type": "event"
    },
    {
      "anonymous": false,
      "inputs": [
        {
          "indexed": false,
          "name": "_authorizer",
          "type": "address"
        },
        {
          "indexed": false,
          "name": "_authorized",
          "type": "address"
        }
      ],
      "name": "AuthorizedRemoved",
      "type": "event"
    },
    {
      "anonymous": false,
      "inputs": [
        {
          "indexed": true,
          "name": "previousOwner",
          "type": "address"
        },
        {
          "indexed": true,
          "name": "newOwner",
          "type": "address"
        }
      ],
      "name": "OwnershipTransferred",
      "type": "event"
    },
    {
      "constant": false,
      "inputs": [
        {
          "name": "_tier",
          "type": "uint8"
        },
        {
          "name": "_duration",
          "type": "uint256"
        }
      ],
      "name": "setTier",
      "outputs": [],
      "payable": false,
      "stateMutability": "nonpayable",
      "type": "function"
    },
    {
      "constant": false,
      "inputs": [
        {
          "name": "_address",
          "type": "address"
        },
        {
          "name": "_txId",
          "type": "uint256"
        },
        {
          "name": "_tier",
          "type": "uint8"
        }
      ],
      "name": "setSubscription",
      "outputs": [],
      "payable": false,
      "stateMutability": "nonpayable",
      "type": "function"
    },
    {
      "constant": true,
      "inputs": [
        {
          "name": "_address",
          "type": "address"
        }
      ],
      "name": "getLastTransactionId",
      "outputs": [
        {
          "name": "",
          "type": "uint256"
        }
      ],
      "payable": false,
      "stateMutability": "view",
      "type": "function"
    },
    {
      "constant": true,
      "inputs": [
        {
          "name": "_address",
          "type": "address"
        }
      ],
      "name": "getExpirationTimestamp",
      "outputs": [
        {
          "name": "",
          "type": "uint256"
        }
      ],
      "payable": false,
      "stateMutability": "view",
      "type": "function"
    }
  ],
  "bytecode": "0x606060405260406004556038600555341561001957600080fd5b60008054600160a060020a033316600160a060020a0319909116178155600660205262278d007f54cdd369e4e8a8515e52ca72ec816c2101831ad1f18bf44102ed171459c9b4f855600190526301e133807f3e5fec24aa4dc4e5aee2e025e51e1392c72a2500577559fae9665c6d52bd6a3155610ac08061009b6000396000f3006060604052600436106100ef5763ffffffff7c0100000000000000000000000000000000000000000000000000000000600035041662e8d3d081146100f457806326d8ffaf146101255780633c930863146101385780634ef47cf11461014b578063606c958c146101825780636d4c409d146101a05780637d067bda146101b35780638da5cb5b146101cc5780638e96b4f5146101fb5780639cb0fd301461021a5780639eff72751461022d578063b918161114610255578063c1dbd9b214610274578063cc06c35914610296578063d1d79974146102a9578063f2fde38b146102c2578063fcf7b193146102e1575b600080fd5b34156100ff57600080fd5b610113600160a060020a0360043516610308565b60405190815260200160405180910390f35b341561013057600080fd5b610113610326565b341561014357600080fd5b61011361032c565b341561015657600080fd5b61016a600160a060020a0360043516610332565b60405191825260208201526040908101905180910390f35b341561018d57600080fd5b61019e60ff6004351660243561034b565b005b34156101ab57600080fd5b61019e6103a1565b34156101be57600080fd5b61019e6004356024356103d1565b34156101d757600080fd5b6101df61042c565b604051600160a060020a03909116815260200160405180910390f35b341561020657600080fd5b610113600160a060020a036004351661043b565b341561022557600080fd5b61019e610456565b341561023857600080fd5b61019e600160a060020a036004351660243560ff604435166104e3565b341561026057600080fd5b610113600160a060020a03600435166106a2565b341561027f57600080fd5b61019e600160a060020a03600435166024356106b4565b34156102a157600080fd5b610113610704565b34156102b457600080fd5b61011360ff6004351661070a565b34156102cd57600080fd5b61019e600160a060020a036004351661071c565b34156102ec57600080fd5b6102f46107b7565b604051901515815260200160405180910390f35b600160a060020a031660009081526007602052604090206001015490565b60015481565b60055481565b6007602052600090815260409020805460019091015482565b600160a060020a0333166000908152600260205260408120541161036e57600080fd5b60ff82166000908152600660205260409020541561038b57600080fd5b60ff909116600090815260066020526040902055565b600160a060020a033316600090815260026020526040812054116103c457600080fd5b6103cf3360006107d5565b565b60005433600160a060020a039081169116146103ec57600080fd5b600154156103f957600080fd5b6000821180156104095750600081115b151561041457600080fd5b8082101561042157600080fd5b600491909155600555565b600054600160a060020a031681565b600160a060020a031660009081526007602052604090205490565b6000805433600160a060020a0390811691161461047257600080fd5b5060005b6003548110156104e05760038054600091908390811061049257fe5b600091825260209091200154600160a060020a0316146104d8576104d86003828154811015156104be57fe5b6000918252602082200154600160a060020a0316906107d5565b600101610476565b50565b600160a060020a03331660009081526002602052604081205481901161050857600080fd5b600160a060020a038416151561051d57600080fd5b60ff82166000908152600660205260409020541561064757600160a060020a0384166000908152600760205260409020600101541561059a5760ff8216600090815260066020908152604080832054600160a060020a03881684526007909252909120600101546105939163ffffffff610a3716565b90506105b1565b5060ff811660009081526006602052604090205442015b6040805190810160409081528482526020808301849052600160a060020a038716600090815260079091522081518155602082015181600101559050507f05d6e8e8960640596779896ac99ffe7c8e40d262a195ee066abd0d7d151d4d1384846001604051600160a060020a039093168352602083019190915215156040808301919091526060909101905180910390a161069c565b7f05d6e8e8960640596779896ac99ffe7c8e40d262a195ee066abd0d7d151d4d1384846000604051600160a060020a039093168352602083019190915215156040808301919091526060909101905180910390a15b50505050565b60026020526000908152604090205481565b60005433600160a060020a03908116911614806106eb5750600554600160a060020a03331660009081526002602052604090205410155b15156106f657600080fd5b61070082826107d5565b5050565b60045481565b60066020526000908152604090205481565b60005433600160a060020a0390811691161461073757600080fd5b600160a060020a038116151561074c57600080fd5b600054600160a060020a0380831691167f8be0079c531659141344cd1fd0a4f28419497f9722a3daafe3b4186f6b6457e060405160405180910390a36000805473ffffffffffffffffffffffffffffffffffffffff1916600160a060020a0392909216919091179055565b600160a060020a033316600090815260026020526040812054115b90565b600080600160a060020a03841615156107ed57600080fd5b6000831015801561080057506004548311155b151561080b57600080fd5b6000831115610930575060009050805b60035482101561086c5783600160a060020a031660038381548110151561083e57fe5b600091825260209091200154600160a060020a031614156108615750600161086c565b60019091019061081b565b8015156108c05760038054600181016108858382610a4d565b506000918252602090912001805473ffffffffffffffffffffffffffffffffffffffff1916600160a060020a03861617905560018054810190555b7f06dda00f803c88b3d3f6c2ba66ff2996f168efd81dd9e675b9c558302e8c5f87338585604051600160a060020a039384168152919092166020820152604080820192909252606001905180910390a1600160a060020a038416600090815260026020526040902083905561069c565b600091505b6003548210156109d45783600160a060020a031660038381548110151561095857fe5b600091825260209091200154600160a060020a031614156109c957600060038381548110151561098457fe5b6000918252602090912001805473ffffffffffffffffffffffffffffffffffffffff1916600160a060020a0392909216919091179055600180546000190190556109d4565b600190910190610935565b7f62086cfc7c3ff60afd375bbb15abc4e07aaabebacc022a791c1a31e29bc96aa13385604051600160a060020a039283168152911660208201526040908101905180910390a1505050600160a060020a0316600090815260026020526040812055565b600082820183811015610a4657fe5b9392505050565b815481835581811511610a7157600083815260209020610a71918101908301610a76565b505050565b6107d291905b80821115610a905760008155600101610a7c565b50905600a165627a7a7230582054d0e2c4ae645406a58cb7d218905acc757f4bdc6ad5a4e87381384ab8fd9c960029",
  "source": "pragma solidity ^0.4.18;\n\nimport 'zeppelin/math/SafeMath.sol';\nimport '../../authorizable/contracts/Authorizable.sol';\n\ncontract SubscriptionStore is Authorizable {\n\n  using SafeMath for uint;\n\n  mapping(uint8 => uint) public tiers;\n\n  struct Subscription {\n    uint lastTransactionId;\n    uint expirationTimestamp;\n  }\n\n  mapping(address => Subscription) public subscription;\n\n  // events\n\n  event newSubscription(address _address, uint _txId, bool _result);\n\n  function SubscriptionStore() public {\n    tiers[0] = 30 days;\n    tiers[1] = 1 years;\n  }\n\n  function setTier(uint8 _tier, uint _duration) external onlyAuthorized {\n    require(tiers[_tier] == 0);\n    // There is no requirement for the _duration because\n    // setting the _duration to 0 is equivalent to remove the tier\n\n    tiers[_tier] = _duration;\n  }\n\n  function setSubscription(address _address, uint _txId, uint8 _tier) external onlyAuthorized {\n    require(_address != address(0));\n    if (tiers[_tier] != 0) {\n      uint expirationDate;\n      if (subscription[_address].expirationTimestamp != 0) {\n        // subscription renew/extension\n        expirationDate = subscription[_address].expirationTimestamp.add(tiers[_tier]);\n      } else {\n        expirationDate = now + tiers[_tier];\n      }\n      subscription[_address] = Subscription(_txId, expirationDate);\n\n      newSubscription(_address, _txId, true);\n    } else {\n      // this avoid to revert, so that we have a listenable event if the tier does not exist\n      newSubscription(_address, _txId, false);\n    }\n  }\n\n  function getLastTransactionId(address _address) external constant returns (uint){\n    return subscription[_address].lastTransactionId;\n  }\n\n  function getExpirationTimestamp(address _address) external constant returns (uint){\n    return subscription[_address].expirationTimestamp;\n  }\n\n}\n",
  "sourcePath": "/Users/sullof/Projects/toktv/TokenTelevision/smartContract/contracts/SubscriptionStore.sol",
  "compiler": {
    "name": "solc",
    "version": "0.4.19+commit.c4cbbb05.Emscripten.clang"
  },
  "schemaVersion": "2.0.0",
  "updatedAt": "2018-03-28T17:53:47.903Z"
}