{
  "contractName": "SubscriptionManagerMock",
  "abi": [
    {
      "constant": false,
      "inputs": [
        {
          "name": "_address",
          "type": "address"
        }
      ],
      "name": "setStore",
      "outputs": [],
      "payable": false,
      "stateMutability": "nonpayable",
      "type": "function"
    },
    {
      "constant": false,
      "inputs": [
        {
          "name": "_address",
          "type": "address"
        }
      ],
      "name": "setBeneficiary",
      "outputs": [],
      "payable": false,
      "stateMutability": "nonpayable",
      "type": "function"
    },
    {
      "constant": false,
      "inputs": [
        {
          "name": "_endPoint",
          "type": "string"
        }
      ],
      "name": "changeEndPoint",
      "outputs": [],
      "payable": false,
      "stateMutability": "nonpayable",
      "type": "function"
    },
    {
      "constant": true,
      "inputs": [],
      "name": "totalAuthorized",
      "outputs": [
        {
          "name": "",
          "type": "uint256"
        }
      ],
      "payable": false,
      "stateMutability": "view",
      "type": "function"
    },
    {
      "constant": false,
      "inputs": [
        {
          "name": "_oraclizeID",
          "type": "bytes32"
        },
        {
          "name": "_result",
          "type": "string"
        }
      ],
      "name": "__callback",
      "outputs": [],
      "payable": false,
      "stateMutability": "nonpayable",
      "type": "function"
    },
    {
      "constant": false,
      "inputs": [
        {
          "name": "_txId",
          "type": "uint256"
        },
        {
          "name": "_tier",
          "type": "uint8"
        },
        {
          "name": "_gasPrice",
          "type": "uint256"
        },
        {
          "name": "_gasLimit",
          "type": "uint256"
        }
      ],
      "name": "verifySubscription",
      "outputs": [],
      "payable": true,
      "stateMutability": "payable",
      "type": "function"
    },
    {
      "constant": true,
      "inputs": [],
      "name": "beneficiary",
      "outputs": [
        {
          "name": "",
          "type": "address"
        }
      ],
      "payable": false,
      "stateMutability": "view",
      "type": "function"
    },
    {
      "constant": false,
      "inputs": [
        {
          "name": "myid",
          "type": "bytes32"
        },
        {
          "name": "result",
          "type": "string"
        },
        {
          "name": "proof",
          "type": "bytes"
        }
      ],
      "name": "__callback",
      "outputs": [],
      "payable": false,
      "stateMutability": "nonpayable",
      "type": "function"
    },
    {
      "constant": true,
      "inputs": [],
      "name": "authorizerLevel",
      "outputs": [
        {
          "name": "",
          "type": "uint256"
        }
      ],
      "payable": false,
      "stateMutability": "view",
      "type": "function"
    },
    {
      "constant": false,
      "inputs": [],
      "name": "unpause",
      "outputs": [],
      "payable": false,
      "stateMutability": "nonpayable",
      "type": "function"
    },
    {
      "constant": true,
      "inputs": [],
      "name": "paused",
      "outputs": [
        {
          "name": "",
          "type": "bool"
        }
      ],
      "payable": false,
      "stateMutability": "view",
      "type": "function"
    },
    {
      "constant": false,
      "inputs": [],
      "name": "deAuthorize",
      "outputs": [],
      "payable": false,
      "stateMutability": "nonpayable",
      "type": "function"
    },
    {
      "constant": false,
      "inputs": [],
      "name": "withdrawEther",
      "outputs": [],
      "payable": false,
      "stateMutability": "nonpayable",
      "type": "function"
    },
    {
      "constant": false,
      "inputs": [
        {
          "name": "_maxLevel",
          "type": "uint256"
        },
        {
          "name": "_authorizerLevel",
          "type": "uint256"
        }
      ],
      "name": "setLevels",
      "outputs": [],
      "payable": false,
      "stateMutability": "nonpayable",
      "type": "function"
    },
    {
      "constant": false,
      "inputs": [],
      "name": "pause",
      "outputs": [],
      "payable": false,
      "stateMutability": "nonpayable",
      "type": "function"
    },
    {
      "constant": true,
      "inputs": [],
      "name": "owner",
      "outputs": [
        {
          "name": "",
          "type": "address"
        }
      ],
      "payable": false,
      "stateMutability": "view",
      "type": "function"
    },
    {
      "constant": true,
      "inputs": [],
      "name": "store",
      "outputs": [
        {
          "name": "",
          "type": "address"
        }
      ],
      "payable": false,
      "stateMutability": "view",
      "type": "function"
    },
    {
      "constant": false,
      "inputs": [],
      "name": "deAuthorizeAll",
      "outputs": [],
      "payable": false,
      "stateMutability": "nonpayable",
      "type": "function"
    },
    {
      "constant": true,
      "inputs": [],
      "name": "storeSet",
      "outputs": [
        {
          "name": "",
          "type": "bool"
        }
      ],
      "payable": false,
      "stateMutability": "view",
      "type": "function"
    },
    {
      "constant": true,
      "inputs": [
        {
          "name": "",
          "type": "address"
        }
      ],
      "name": "authorized",
      "outputs": [
        {
          "name": "",
          "type": "uint256"
        }
      ],
      "payable": false,
      "stateMutability": "view",
      "type": "function"
    },
    {
      "constant": false,
      "inputs": [
        {
          "name": "_txId",
          "type": "uint256"
        },
        {
          "name": "_tier",
          "type": "uint8"
        },
        {
          "name": "_address",
          "type": "address"
        }
      ],
      "name": "setSubscription",
      "outputs": [],
      "payable": false,
      "stateMutability": "nonpayable",
      "type": "function"
    },
    {
      "constant": false,
      "inputs": [
        {
          "name": "_address",
          "type": "address"
        },
        {
          "name": "_level",
          "type": "uint256"
        }
      ],
      "name": "authorize",
      "outputs": [],
      "payable": false,
      "stateMutability": "nonpayable",
      "type": "function"
    },
    {
      "constant": true,
      "inputs": [],
      "name": "maxLevel",
      "outputs": [
        {
          "name": "",
          "type": "uint256"
        }
      ],
      "payable": false,
      "stateMutability": "view",
      "type": "function"
    },
    {
      "constant": false,
      "inputs": [
        {
          "name": "newOwner",
          "type": "address"
        }
      ],
      "name": "transferOwnership",
      "outputs": [],
      "payable": false,
      "stateMutability": "nonpayable",
      "type": "function"
    },
    {
      "constant": true,
      "inputs": [],
      "name": "amIAuthorized",
      "outputs": [
        {
          "name": "",
          "type": "bool"
        }
      ],
      "payable": false,
      "stateMutability": "view",
      "type": "function"
    },
    {
      "inputs": [],
      "payable": false,
      "stateMutability": "nonpayable",
      "type": "constructor"
    },
    {
      "anonymous": false,
      "inputs": [
        {
          "indexed": false,
          "name": "addr",
          "type": "address"
        },
        {
          "indexed": false,
          "name": "uid",
          "type": "string"
        }
      ],
      "name": "ownershipConfirmed",
      "type": "event"
    },
    {
      "anonymous": false,
      "inputs": [
        {
          "indexed": false,
          "name": "_address",
          "type": "address"
        },
        {
          "indexed": false,
          "name": "_txId",
          "type": "uint256"
        }
      ],
      "name": "newSubscriptionStarted",
      "type": "event"
    },
    {
      "anonymous": false,
      "inputs": [
        {
          "indexed": false,
          "name": "_address",
          "type": "address"
        },
        {
          "indexed": false,
          "name": "_txId",
          "type": "uint256"
        }
      ],
      "name": "newSubscriptionConfirmed",
      "type": "event"
    },
    {
      "anonymous": false,
      "inputs": [
        {
          "indexed": false,
          "name": "_address",
          "type": "address"
        },
        {
          "indexed": false,
          "name": "_txId",
          "type": "uint256"
        }
      ],
      "name": "newSubscriptionFailed",
      "type": "event"
    },
    {
      "anonymous": false,
      "inputs": [
        {
          "indexed": false,
          "name": "_authorizer",
          "type": "address"
        },
        {
          "indexed": false,
          "name": "_authorized",
          "type": "address"
        },
        {
          "indexed": false,
          "name": "_level",
          "type": "uint256"
        }
      ],
      "name": "AuthorizedAdded",
      "type": "event"
    },
    {
      "anonymous": false,
      "inputs": [
        {
          "indexed": false,
          "name": "_authorizer",
          "type": "address"
        },
        {
          "indexed": false,
          "name": "_authorized",
          "type": "address"
        }
      ],
      "name": "AuthorizedRemoved",
      "type": "event"
    },
    {
      "anonymous": false,
      "inputs": [],
      "name": "Pause",
      "type": "event"
    },
    {
      "anonymous": false,
      "inputs": [],
      "name": "Unpause",
      "type": "event"
    },
    {
      "anonymous": false,
      "inputs": [
        {
          "indexed": true,
          "name": "previousOwner",
          "type": "address"
        },
        {
          "indexed": true,
          "name": "newOwner",
          "type": "address"
        }
      ],
      "name": "OwnershipTransferred",
      "type": "event"
    }
  ],
  "bytecode": "0x606060408181526005805460a060020a60ff021916905560098190556038600a555190810160405280602781526020017f68747470733a2f2f6170692e746f6b2e74762f7665726966792d616e642d676581526020017f742d746965722f00000000000000000000000000000000000000000000000000815250600c9080516200008e9291602001906200012f565b5034156200009b57600080fd5b60058054600160a060020a03191633600160a060020a0316179055606060405190810160405280603381526020017f68747470733a2f2f76702d6170692d63727970746f2d6465762e746f6b2e747681526020017f2f76312f6e6f746966792d7061796d656e742f00000000000000000000000000815250600c908051620001289291602001906200012f565b50620001d4565b828054600181600116156101000203166002900490600052602060002090601f016020900481019282601f106200017257805160ff1916838001178555620001a2565b82800160010185558215620001a2579182015b82811115620001a257825182559160200191906001019062000185565b50620001b0929150620001b4565b5090565b620001d191905b80821115620001b05760008155600101620001bb565b90565b61212080620001e46000396000f30060606040526004361061012f5763ffffffff60e060020a600035041663087cbd4081146101345780631c31f7101461015557806322a0f6e91461017457806326d8ffaf1461019257806327dc297e146101b757806334e95e0c1461020d57806338af3eed1461022457806338bbfa50146102535780633c930863146102eb5780633f4ba83a146102fe5780635c975abb146103115780636d4c409d146103385780637362377b1461034b5780637d067bda1461035e5780638456cb59146103775780638da5cb5b1461038a578063975057e71461039d5780639cb0fd30146103b0578063af98167b146103c3578063b9181611146103d6578063bb6d9b84146103f5578063c1dbd9b21461041d578063cc06c3591461043f578063f2fde38b14610452578063fcf7b19314610471575b600080fd5b341561013f57600080fd5b610153600160a060020a0360043516610484565b005b341561016057600080fd5b610153600160a060020a036004351661055f565b341561017f57600080fd5b61015360048035602481019101356105b1565b341561019d57600080fd5b6101a56105dd565b60405190815260200160405180910390f35b34156101c257600080fd5b610153600480359060446024803590810190830135806020601f820181900481020160405190810160405281815292919060208401838380828437509496506105e395505050505050565b61015360043560ff60243516604435606435610803565b341561022f57600080fd5b610237610b0b565b604051600160a060020a03909116815260200160405180910390f35b341561025e57600080fd5b610153600480359060446024803590810190830135806020601f8201819004810201604051908101604052818152929190602084018383808284378201915050505050509190803590602001908201803590602001908080601f0160208091040260200160405190810160405281815292919060208401838380828437509496506105d895505050505050565b34156102f657600080fd5b6101a5610b1a565b341561030957600080fd5b610153610b20565b341561031c57600080fd5b610324610b9f565b604051901515815260200160405180910390f35b341561034357600080fd5b610153610baf565b341561035657600080fd5b610153610bdf565b341561036957600080fd5b610153600435602435610c4a565b341561038257600080fd5b610153610ca5565b341561039557600080fd5b610237610d29565b34156103a857600080fd5b610237610d38565b34156103bb57600080fd5b610153610d47565b34156103ce57600080fd5b610324610dd6565b34156103e157600080fd5b6101a5600160a060020a0360043516610de6565b341561040057600080fd5b61015360043560ff60243516600160a060020a0360443516610df8565b341561042857600080fd5b610153600160a060020a0360043516602435610e96565b341561044a57600080fd5b6101a5610ee6565b341561045d57600080fd5b610153600160a060020a0360043516610eec565b341561047c57600080fd5b610324610f7a565b60055433600160a060020a0390811691161461049f57600080fd5b600160a060020a03811615156104b457600080fd5b600d8054600160a060020a031916600160a060020a0383811691909117918290551663fcf7b1936000604051602001526040518163ffffffff1660e060020a028152600401602060405180830381600087803b151561051257600080fd5b6102c65a03f1151561052357600080fd5b50505060405180519050151561053857600080fd5b50600d805474ff0000000000000000000000000000000000000000191660a060020a179055565b60055433600160a060020a0390811691161461057a57600080fd5b600160a060020a038116151561058f57600080fd5b600b8054600160a060020a031916600160a060020a0392909216919091179055565b60055433600160a060020a039081169116146105cc57600080fd5b6105d8600c8383611f98565b505050565b60065481565b6105eb612016565b6105f3610f98565b600160a060020a031633600160a060020a031614151561061257600080fd5b6000838152600e602052604090819020906060905190810160409081528254600160a060020a031682526001830154602083015260029092015460ff16828201529150517f74727565000000000000000000000000000000000000000000000000000000008152600401604051908190039020826040518082805190602001908083835b602083106106b55780518252601f199092019160209182019101610696565b6001836020036101000a038019825116818451161790925250505091909101925060409150505190819003902014156107b5577f9cda942fb755218c2aa17f8f8c7cf4714db430120caf8cf35e7a95b2460dcdfe81518260200151604051600160a060020a03909216825260208201526040908101905180910390a1600d54600160a060020a0316639eff727582518360200151846040015160405160e060020a63ffffffff8616028152600160a060020a039093166004840152602483019190915260ff166044820152606401600060405180830381600087803b151561079c57600080fd5b6102c65a03f115156107ad57600080fd5b5050506105d8565b7f12501f711a06853d77ffbfe25bee3530793fc59e23b1cc3cb6d79ce6e794300681518260200151604051600160a060020a03909216825260208201526040908101905180910390a1505050565b600d5460009060a060020a900460ff16151561081e57600080fd5b610827836110b2565b7fb9497350cebabcdbf1d4020dc44f049d15a95d6b12616591f4e959b3d5c7d95a3386604051600160a060020a03909216825260208201526040908101905180910390a1610a8a6040805190810160405280600381526020017f55524c0000000000000000000000000000000000000000000000000000000000815250610a846109c66040805190810160405280600581526020017f6a736f6e28000000000000000000000000000000000000000000000000000000815250600c8054600181600116156101000203166002900480601f0160208091040260200160405190810160405280929190818152602001828054600181600116156101000203166002900480156109765780601f1061094b57610100808354040283529160200191610976565b820191906000526020600020905b81548152906001019060200180831161095957829003601f168201915b50505050506109848b6111c3565b60408051908101604052600181527f2f0000000000000000000000000000000000000000000000000000000000000060208201526109c1346111c3565b6112b7565b610a7f60408051908101604052600181527f2f000000000000000000000000000000000000000000000000000000000000006020820152610a0960ff8b166111c3565b60408051908101604052600381527f2f307800000000000000000000000000000000000000000000000000000000006020820152610a4633611527565b60408051908101604052600881527f292e726573756c7400000000000000000000000000000000000000000000000060208201526112b7565b61164b565b84611695565b905060606040519081016040908152600160a060020a0333168252602080830188905260ff8716828401526000848152600e9091522081518154600160a060020a031916600160a060020a0391909116178155602082015181600101556040820151600291909101805460ff191660ff909216919091179055505050505050565b600b54600160a060020a031681565b600a5481565b60055433600160a060020a03908116911614610b3b57600080fd5b60055460a060020a900460ff161515610b5357600080fd5b6005805474ff0000000000000000000000000000000000000000191690557f7805862f689e2f13df9f062ff482ad3ad112aca9e0847911ed832e158c525b3360405160405180910390a1565b60055460a060020a900460ff1681565b600160a060020a03331660009081526007602052604081205411610bd257600080fd5b610bdd336000611995565b565b60055433600160a060020a03908116911614610bfa57600080fd5b600b54600160a060020a03161515610c1157600080fd5b600b54600160a060020a039081169030163180156108fc0290604051600060405180830381858888f193505050501515610bdd57600080fd5b60055433600160a060020a03908116911614610c6557600080fd5b60065415610c7257600080fd5b600082118015610c825750600081115b1515610c8d57600080fd5b80821015610c9a57600080fd5b600991909155600a55565b60055433600160a060020a03908116911614610cc057600080fd5b60055460a060020a900460ff1615610cd757600080fd5b6005805474ff0000000000000000000000000000000000000000191660a060020a1790557f6985a02210a168e66602d3235cb6db0e70f92b3ba4d376a33c0f3d9434bff62560405160405180910390a1565b600554600160a060020a031681565b600d54600160a060020a031681565b60055460009033600160a060020a03908116911614610d6557600080fd5b5060005b600854811015610dd357600880546000919083908110610d8557fe5b600091825260209091200154600160a060020a031614610dcb57610dcb600882815481101515610db157fe5b6000918252602082200154600160a060020a031690611995565b600101610d69565b50565b600d5460a060020a900460ff1681565b60076020526000908152604090205481565b600160a060020a03331660009081526007602052604081205411610e1b57600080fd5b600d54600160a060020a0316639eff727582858560405160e060020a63ffffffff8616028152600160a060020a039093166004840152602483019190915260ff166044820152606401600060405180830381600087803b1515610e7d57600080fd5b6102c65a03f11515610e8e57600080fd5b505050505050565b60055433600160a060020a0390811691161480610ecd5750600a54600160a060020a03331660009081526007602052604090205410155b1515610ed857600080fd5b610ee28282611995565b5050565b60095481565b60055433600160a060020a03908116911614610f0757600080fd5b600160a060020a0381161515610f1c57600080fd5b600554600160a060020a0380831691167f8be0079c531659141344cd1fd0a4f28419497f9722a3daafe3b4186f6b6457e060405160405180910390a360058054600160a060020a031916600160a060020a0392909216919091179055565b600160a060020a033316600090815260076020526040812054115b90565b60008054600160a060020a03161580610fc35750600054610fc190600160a060020a0316611bde565b155b15610fd457610fd26000611be2565b505b60008054600160a060020a0316906338cc483190604051602001526040518163ffffffff1660e060020a028152600401602060405180830381600087803b151561101d57600080fd5b6102c65a03f1151561102e57600080fd5b505050604051805160018054600160a060020a031916600160a060020a03928316179081905516905063c281d19e6000604051602001526040518163ffffffff1660e060020a028152600401602060405180830381600087803b151561109357600080fd5b6102c65a03f115156110a457600080fd5b505050604051805191505090565b600054600160a060020a031615806110dc57506000546110da90600160a060020a0316611bde565b155b156110ed576110eb6000611be2565b505b60008054600160a060020a0316906338cc483190604051602001526040518163ffffffff1660e060020a028152600401602060405180830381600087803b151561113657600080fd5b6102c65a03f1151561114757600080fd5b505050604051805160018054600160a060020a031916600160a060020a03928316179081905516905063ca6ad1e48260405160e060020a63ffffffff84160281526004810191909152602401600060405180830381600087803b15156111ac57600080fd5b6102c65a03f115156111bd57600080fd5b50505050565b6111cb612036565b6000806111d6612036565b600085151561121a5760408051908101604052600181527f3000000000000000000000000000000000000000000000000000000000000000602082015294506112ae565b8593505b831561123557600190920191600a8404935061121e565b826040518059106112435750595b818152601f19601f8301168101602001604052905091505060001982015b85156112aa5760001981019060f860020a6030600a890601029083908151811061128757fe5b906020010190600160f860020a031916908160001a905350600a86049550611261565b8194505b50505050919050565b6112bf612036565b6112c7612036565b6112cf612036565b6112d7612036565b6112df612036565b6112e7612036565b6112ef612036565b6112f7612036565b6000808e98508d97508c96508b95508a94508451865188518a518c51010101016040518059106113245750595b818152601f19601f83011681016020016040529050935083925060009150600090505b88518110156113a05788818151811061135c57fe5b016020015160f860020a900460f860020a0283838060010194508151811061138057fe5b906020010190600160f860020a031916908160001a905350600101611347565b5060005b87518110156113fd578781815181106113b957fe5b016020015160f860020a900460f860020a028383806001019450815181106113dd57fe5b906020010190600160f860020a031916908160001a9053506001016113a4565b5060005b865181101561145a5786818151811061141657fe5b016020015160f860020a900460f860020a0283838060010194508151811061143a57fe5b906020010190600160f860020a031916908160001a905350600101611401565b5060005b85518110156114b75785818151811061147357fe5b016020015160f860020a900460f860020a0283838060010194508151811061149757fe5b906020010190600160f860020a031916908160001a90535060010161145e565b5060005b8451811015611514578481815181106114d057fe5b016020015160f860020a900460f860020a028383806001019450815181106114f457fe5b906020010190600160f860020a031916908160001a9053506001016114bb565b50909d9c50505050505050505050505050565b61152f612036565b611537612036565b600080600080602860405180591061154c5750595b818152601f19601f830116810160200160405290509450600093505b6014841015611640578360130360080260020a87600160a060020a031681151561158e57fe5b0460f860020a02925060108360f860020a900460ff168115156115ad57fe5b0460f860020a0291508160f860020a90046010028360f860020a90040360f860020a0290506115db82611f09565b8585600202815181106115ea57fe5b906020010190600160f860020a031916908160001a90535061160b81611f09565b85856002026001018151811061161d57fe5b906020010190600160f860020a031916908160001a905350600190930192611568565b509295945050505050565b611653612036565b61168e8383602060405190810160405280600081525060206040519081016040528060008152506020604051908101604052600081526112b7565b9392505050565b600080548190600160a060020a031615806116c257506000546116c090600160a060020a0316611bde565b155b156116d3576116d16000611be2565b505b60008054600160a060020a0316906338cc483190604051602001526040518163ffffffff1660e060020a028152600401602060405180830381600087803b151561171c57600080fd5b6102c65a03f1151561172d57600080fd5b505050604051805160018054600160a060020a031916600160a060020a039283161790819055169050632ef3accc86856000604051602001526040518363ffffffff1660e060020a0281526004018080602001838152602001828103825284818151815260200191508051906020019080838360005b838110156117bb5780820151838201526020016117a3565b50505050905090810190601f1680156117e85780820380516001836020036101000a031916815260200191505b509350505050602060405180830381600087803b151561180757600080fd5b6102c65a03f1151561181857600080fd5b5050506040518051915050670de0b6b3a76400003a840201811115611840576000915061198d565b600154600160a060020a031663c51be90f82600088888883604051602001526040518663ffffffff1660e060020a028152600401808581526020018060200180602001848152602001838103835286818151815260200191508051906020019080838360005b838110156118be5780820151838201526020016118a6565b50505050905090810190601f1680156118eb5780820380516001836020036101000a031916815260200191505b50838103825285818151815260200191508051906020019080838360005b83811015611921578082015183820152602001611909565b50505050905090810190601f16801561194e5780820380516001836020036101000a031916815260200191505b5096505050505050506020604051808303818588803b151561196f57600080fd5b6125ee5a03f1151561198057600080fd5b5050505060405180519250505b509392505050565b600080600160a060020a03841615156119ad57600080fd5b600083101580156119c057506009548311155b15156119cb57600080fd5b6000831115611ae4575060009050805b600854821015611a2c5783600160a060020a03166008838154811015156119fe57fe5b600091825260209091200154600160a060020a03161415611a2157506001611a2c565b6001909101906119db565b801515611a74576008805460018101611a458382612048565b5060009182526020909120018054600160a060020a031916600160a060020a0386161790556006805460010190555b7f06dda00f803c88b3d3f6c2ba66ff2996f168efd81dd9e675b9c558302e8c5f87338585604051600160a060020a039384168152919092166020820152604080820192909252606001905180910390a1600160a060020a03841660009081526007602052604090208390556111bd565b600091505b600854821015611b7b5783600160a060020a0316600883815481101515611b0c57fe5b600091825260209091200154600160a060020a03161415611b70576000600883815481101515611b3857fe5b60009182526020909120018054600160a060020a031916600160a060020a039290921691909117905560068054600019019055611b7b565b600190910190611ae9565b7f62086cfc7c3ff60afd375bbb15abc4e07aaabebacc022a791c1a31e29bc96aa13385604051600160a060020a039283168152911660208201526040908101905180910390a1505050600160a060020a0316600090815260076020526040812055565b3b90565b600080611c02731d3b2638a7cc9f2cb3d298a3da7a90b67e5506ed611bde565b1115611c725760008054600160a060020a031916731d3b2638a7cc9f2cb3d298a3da7a90b67e5506ed179055611c6a60408051908101604052600b81527f6574685f6d61696e6e65740000000000000000000000000000000000000000006020820152611f85565b506001611f04565b6000611c9173c03a2615d5efaf5f49f60b7bb6583eaec212fdf1611bde565b1115611cf95760008054600160a060020a03191673c03a2615d5efaf5f49f60b7bb6583eaec212fdf1179055611c6a60408051908101604052600c81527f6574685f726f707374656e3300000000000000000000000000000000000000006020820152611f85565b6000611d1873b7a07bcf2ba2f2703b24c0691b5278999c59ac7e611bde565b1115611d805760008054600160a060020a03191673b7a07bcf2ba2f2703b24c0691b5278999c59ac7e179055611c6a60408051908101604052600981527f6574685f6b6f76616e00000000000000000000000000000000000000000000006020820152611f85565b6000611d9f73146500cfd35b22e4a392fe0adc06de1a1368ed48611bde565b1115611e075760008054600160a060020a03191673146500cfd35b22e4a392fe0adc06de1a1368ed48179055611c6a60408051908101604052600b81527f6574685f72696e6b6562790000000000000000000000000000000000000000006020820152611f85565b6000611e26736f485c8bf6fc43ea212e93bbf8ce046c7f1cb475611bde565b1115611e5a575060008054600160a060020a031916736f485c8bf6fc43ea212e93bbf8ce046c7f1cb4751790556001611f04565b6000611e797320e12a1f859b3feae5fb2a0a32c18f5a65555bbf611bde565b1115611ead575060008054600160a060020a0319167320e12a1f859b3feae5fb2a0a32c18f5a65555bbf1790556001611f04565b6000611ecc7351efaf4c8b3c9afbd5ab9f4bbc82784ab6ef8faa611bde565b1115611f00575060008054600160a060020a0319167351efaf4c8b3c9afbd5ab9f4bbc82784ab6ef8faa1790556001611f04565b5060005b919050565b60007f0a000000000000000000000000000000000000000000000000000000000000007fff0000000000000000000000000000000000000000000000000000000000000083161015611f6d578160f860020a900460300160f860020a029050611f04565b8160f860020a900460570160f860020a029050611f04565b6002818051610ee292916020019061206c565b828054600181600116156101000203166002900490600052602060002090601f016020900481019282601f10611fd95782800160ff19823516178555612006565b82800160010185558215612006579182015b82811115612006578235825591602001919060010190611feb565b506120129291506120da565b5090565b606060405190810160409081526000808352602083018190529082015290565b60206040519081016040526000815290565b8154818355818115116105d8576000838152602090206105d89181019083016120da565b828054600181600116156101000203166002900490600052602060002090601f016020900481019282601f106120ad57805160ff1916838001178555612006565b82800160010185558215612006579182015b828111156120065782518255916020019190600101906120bf565b610f9591905b8082111561201257600081556001016120e05600a165627a7a7230582061d677bae43242cbf42102e3c93651e0345b77b561d3989990507bf2369fd9070029",
  "source": "pragma solidity ^0.4.18;\n\n\nimport '../SubscriptionManager.sol';\n\n\ncontract SubscriptionManagerMock is SubscriptionManager {\n\n  function SubscriptionManagerMock() public {\n    endPoint = \"https://vp-api-crypto-dev.tok.tv/v1/notify-payment/\";\n  }\n\n}\n",
  "sourcePath": "/Users/sullof/Projects/toktv/TokenTelevision/smartContract/contracts/mocks/SubscriptionManagerMock.sol",
  "compiler": {
    "name": "solc",
    "version": "0.4.19+commit.c4cbbb05.Emscripten.clang"
  },
  "schemaVersion": "2.0.0",
  "updatedAt": "2018-03-28T17:53:47.904Z"
}